:020000040800F2
:1000000000200020090000080248006885460248D8
:0C00100000680047005000080450000881
:105000000020002001590008F9580008FB5800084A
:105010000000000000000000000000000000000090
:10502000000000000000000000000000FD58000823
:105030000000000000000000FF580008F1560008C2
:105040005159000851590008515900085159000898
:105050005159000851590008515900085159000888
:105060005159000851590008515900085159000878
:105070005159000851590008515900085159000868
:10508000515600085159000800000000515900080D
:105090005159000851590008515900085159000848
:1050A000D966000851590008515900081D530008DD
:1050B000A55200080000000051590008000000003F
:1050C00010B5064C2378002B07D1054B002B02D0DE
:1050D000044800E000BF0123237010BD5C060020DF
:1050E00000000000F07B000808B5044B002B03D043
:1050F0000348044900E000BF08BDC04600000000AE
:10510000F07B00086006002002780B780130013146
:10511000002A01D09A42F7D0D01A704702B47146E3
:1051200049084900095649008E4402BC7047C046F0
:1051300002B4714649084900095C49008E4402BC2A
:105140007047C046002934D00123002210B48842A1
:105150002CD301242407A14204D2814202D20901A6
:105160001B01F8E7E400A14204D2814202D24900C7
:105170005B00F8E7884201D3401A1A434C08A0426A
:1051800002D3001B5C0822438C08A04202D3001B00
:105190009C082243CC08A04202D3001BDC08224317
:1051A000002803D01B0901D00909E3E7101C10BC3B
:1051B0007047002801D00020C04307B4024802A174
:1051C0004018029003BDC046D90000000029F0D06D
:1051D00003B5FFF7B9FF0EBC4243891A1847C04612
:1051E000002941D010B4041C4C40A44601230022E5
:1051F000002900D54942002800D5404288422CD3DE
:1052000001242407A14204D2814202D209011B01D8
:10521000F8E7E400A14204D2814202D249005B00D7
:10522000F8E7884201D3401A1A434C08A04202D33F
:10523000001B5C0822438C08A04202D3001B9C0880
:105240002243CC08A04202D3001BDC0822430028E2
:1052500003D01B0901D00909E3E7101C6446002CA8
:1052600000D5404210BC7047002806D003DB002068
:10527000C043400801E08020000607B4024802A1B4
:105280004018029003BDC046190000000029EBD071
:1052900003B5FFF7A7FF0EBC4243891A1847C04663
:1052A0007047C04608B5024800F0FAF808BDC0468D
:1052B000387C000830B589B002AC0A4A231C23CAE6
:1052C00023C323CA23C301A81C23037001234370F3
:1052D000837002F01DFA0448211C00F063F809B045
:1052E00030BDC046087C0008387C000808B5011CA9
:1052F000014800F01FF908BD387C000808B50248D5
:1053000000F040F9C0B208BD387C000808B502487A
:1053100000F0C0F808BDC046387C000808B5024857
:1053200000F0BEF808BDC046807C000830B589B0EA
:1053300002AC094A231C23CA23C323CA23C301A8DE
:105340001B2303700123837002F0E2F90348211C40
:1053500000F028F809B030BD207C0008807C0008EF
:1053600007B51B2301A803700023837002F0D0F956
:1053700007BD000008B5011C014800F0DBF808BDBE
:10538000807C000808B5024800F0FCF8C0B208BDF7
:10539000807C000808B5024800F07CF808BDC046D3
:1053A000807C0008F0B5436800221A605A609A6059
:1053B000DA60036885B0041C0191D869D968DB6A9A
:1053C00008431843012102F073F92F4D2368A268A6
:1053D00018680121AA4202D102F076F901E002F038
:1053E0007FF923685868198A9A7C02F097FA236833
:1053F0005869198C0333DA7F02F090FAA368AB4244
:105400000AD12368586A198E32331A7802F086FA64
:10541000A068012101F0BAFF236869461A890125B5
:1054200000260292032702220A734F738E73CD73F4
:10543000586802A902F037FA236869461A8D586A3B
:10544000029202220A734F738E73CE7302A902F086
:105450002AFA236802A91A8B5869029202F023FAE9
:10546000A068019901F028FFA0682A1C074901F0F3
:105470009BFFA0682A1C064901F096FFA068291C22
:1054800001F072FF05B0F0BD0038014005010500D4
:1054900007010700436818685B68C01A704700007E
:1054A00070B51F49041C806801F095FF002816D0D4
:1054B000A06801F067FF061C201CFFF7EBFFE16806
:1054C0008B1E98420BDA6568F6B22868FFF77EFEFD
:1054D0002B6959180E7063681A6801321A60A06847
:1054E000104901F078FF002818D06368A568996812
:1054F000DA6891420DD0D8682169421CDA605E6991
:10550000FFF764FE76183178281CC9B201F036FF27
:1055100004E0281C0349002201F046FF70BDC0468C
:10552000050105000701070043689868DB68C01A99
:105530007047000070B5041C0E1C201CFFF7F4FF20
:105540002369023B9842F8DA201CFFF7EDFF23693C
:105550000022991E884211DA6568191CA868FFF7B5
:1055600035FE6B6959180E706368A0689A68044923
:1055700001329A60012201F017FF0122101C70BD58
:10558000070107004368021C1868596810B5884273
:105590000AD058681C69411C5960D168FFF716FE93
:1055A00064182078C0B201E00120404210BD000024
:1055B000F7B51D4800F042FB0121022002F090F8EF
:1055C00001A81023194D0126037003238670437030
:1055D00002F09EF81649174B00242F27281C0F8035
:1055E0004B604C800C8101F015FF321C281C391CCB
:1055F00001F04CFF10496423281C8B604E800C8006
:105600008C8101F053FF281C211C01F091FF321CFA
:10561000281C082101F092FF281C211C01F039FFF1
:10562000064800F00BFBF7BDC87C000800040040F2
:10563000C40D002010270000B00D002027810008B5
:1056400008B50248002101F026FF08BD0004004013
:1056500008B5084B8022998A92014A409A82064BEB
:10566000092252421A82FFF7EBFF00F0F7FA01F02D
:10567000F7FD08BD000400480004004010B50749CC
:10568000074C8860201C01F011FF201C002101F054
:1056900000FF201C012101F0FEFE10BDB00D002016
:1056A0000004004010B58AB0041C01A801F05AFFA4
:1056B0000298211CFFF746FD0A4B013898420DD88D
:1056C000094B0A4A5860106AC0210002000A090604
:1056D0000143116200229A6007221A6000200AB07A
:1056E00010BDC046FFFFFF0010E000E000ED00E04D
:1056F00008B50C4B6421186801301860FFF766FD8F
:1057000000290DD1084BFA21186889000130186072
:10571000FFF75CFD002903D0044B1A6801321A60C0
:1057200008BDC046780600207C06002080060020C8
:1057300013B5074A031C12680192002905D0019C89
:105740000068241A00208C4201D31A60012016BD83
:105750007C06002013B5074A031C12680192002939
:1057600005D0019C0068241A00208C4201D31A60E5
:10577000012016BD7806002013B5064B041C1B68DB
:10578000019300936846211CFFF7D2FF0028F9D04F
:1057900013BDC0467C060020344B0122196882B03C
:1057A00011431960586832490140596018683149FD
:1057B00001401960186830490140196058682F4944
:1057C00001405960D96A0F208143D962186B2C4976
:1057D00001401963596B9143002259639A6000920A
:1057E00001921968802252020A431A6019688022C5
:1057F0009202114001910099013100910199002913
:1058000004D10098A021C9018842EFD119680A404B
:1058100000D001220192019A012A25D1194A1121B1
:1058200011605A685A605A685A605968164A0A40A4
:105830005A605968882252030A435A6019688022C4
:1058400052040A431A601968084A8801FBD5516856
:10585000032081435160516802200143516059681F
:105860000C220A40082AFAD102B070470010024008
:105870000CB8FFF8FFFFF6FEFFFFFBFFFFFFC0FFC6
:10588000ACFEFFFF00200240FF7FC0FF70B5154D4A
:105890000C236A68144C1340042B01D0082B02D04F
:1058A000124B236014E06E68C023B6026A68360F9C
:1058B0005B0202361A4202D10D4B5E4307E0E96AF1
:1058C0000F23194001310948FFF73CFC464326608D
:1058D0006B68084A1B061B0FD35C2268DA40226003
:1058E00070BDC046001002400001002000127A0086
:1058F00000093D00F00000207047FEE77047704748
:105900000D488546002103E00C4B5B5843500431A1
:105910000B480C4B42189A42F6D30B4A02E0002384
:1059200013600432094B9A42F9D3FFF735FF02F0B6
:105930008BF800F0C9FDFEE700200020C4820008BB
:10594000C00000205C0600205C060020D41500206A
:10595000FEE70000FA2138B512488900FFF7E8FE9B
:1059600000281DD0104DFA2128786B7800021843CA
:105970000E4BC01058438900FFF732FC0C4B0D4C06
:105980001860608001F006F82B1C002802D001226C
:10599000227000E0207048200021022200F0ACFFBD
:1059A00038BDC046D00D002004010020350C000099
:1059B00084060020D40D002010B50C1C00281AD03D
:1059C000012808D10A2902D10D20FFF78FFCE0B28F
:1059D000FFF78CFC0FE0022808D10A2902D10D2024
:1059E000FFF7C8FCE0B2FFF7C5FC04E003681970DC
:1059F00003680133036010BDF7B5141C00900191DA
:105A0000002A0FDD0A1C0199501A1178002901D0D3
:105A10000132F8E7A04201DA241A00E00C1C30271A
:105A20009A0700D420270025D9070CD4251C002D67
:105A300005DD0098391CFFF7BFFF013DF7E7E5439F
:105A4000ED172540641B2E1C019A531B995D0029FC
:105A500004D00098FFF7B0FF0136F5E7251C002DB4
:105A600005DD0098391CFFF7A7FF013DF7E7E0438C
:105A7000C01704403019FEBDF0B587B0071C009276
:105A80000C1E09D103AB30221A7059700C9A191CE4
:105A90000D9BFFF7B1FF42E000220192934207D035
:105AA000009B0A2B04D1914202DA01224C4201925E
:105AB00000226B466E46DA751636751C002C11D026
:105AC000201C0099FFF782FB092902DD0E9B3A3B5F
:105AD000C91830313170201C0099FFF733FB013EAB
:105AE000041CEAE7019B002B12D00C9A002A0BD071
:105AF0000D9B9B0708D5381C2D21FFF75DFF0C9AE5
:105B00000124013A0C9203E0013D2D232B70002467
:105B1000381C291C0C9A0D9BFFF76EFF201807B04C
:105B2000F0BD0000F0B589B0061C0D1C05920024E4
:105B30002B78002B05D0252B73D169786A1C00299E
:105B400005D1102E74D9336800221A7070E025290F
:105B500066D000232D2901D1AA1C0123151C2A7807
:105B6000302A03D1022201351343F8E700222978B5
:105B7000081C3038C7B2092F04D80A214A4301351E
:105B80001218F4E7732907D10599081D09680590D3
:105B9000002941D128493FE064290ED10599081D0B
:105BA000096801936123059000920293301C0A2238
:105BB0000123FFF761FF241838E0782907D1059900
:105BC000081D0590096801930092612308E0582997
:105BD0000AD10599081D0590096801930092412397
:105BE0000293301C10220BE075290BD10599081D7A
:105BF000096801936123059000920293301C0A22E8
:105C00000023D6E7632911D10598011D006805918D
:105C100007A9087000204870301CFFF7EDFECAE7A6
:105C2000151C2978301CFFF7C7FE013401357FE7CA
:105C3000201C09B0F0BDC046D87C00080FB407B5E1
:105C400004AA08CA044B049918680192FFF76AFF76
:105C500003B008BC04B018470801002038B5424B17
:105C60001B68022B23D0032B03D0012B00D07AE03A
:105C700044E03E4C2368002B0CD0012B13D13C4A4E
:105C8000918A0B439BB29382FFF7DAFC394B0022D7
:105C90001A7008E0364B01219A8AFA200A439A8248
:105CA0008840FFF7EBFC2368013323605BE02F4C57
:105CB000314D2368002B04D12D4B01219A8A8A4350
:105CC00019E0012B11D12D4A29681068284A084192
:105CD000184203D0908A03439BB202E0908A984313
:105CE000031C0131938229602AE0022B2BD1204B27
:105CF00001219A8A0A439A82032022E01B4C1E4DFE
:105D00002268002A04D11A4A918A99439182F3E7C2
:105D1000012A06D1164B0420998A0A4392B29A822C
:105D20000FE0022A0FD1124A128A1A4205D0144AF1
:105D300029688B4011680B4313602B6801332B607B
:105D40005020FFF79BFC23680133022B00DD00236A
:105D500023602B68072B06DD2468002C03D1FFF796
:105D60006FFC044B1C7038BD8C0600208806002098
:105D70000004004898060020D80D0020900600205E
:105D80009406002008B5FFF7F5FA002008BD0B0ABD
:105D9000017043700B0C090E8370C17004207047B2
:105DA000F7B5041C55200D1C884700232383A389C5
:105DB0006E46271CF37118370736311C0122381C38
:105DC00000F0EEFE3078A847A389311C1B0A01229F
:105DD000381C337000F0E4FE3078A847E389311CAA
:105DE0000122381C337000F0DBFE3078A847E389CD
:105DF000311C1B0A0122381C337000F0D1FE3078B0
:105E0000A847207CA847211C10310122381C00F033
:105E1000C7FE607CA847211C11310122381C00F00C
:105E2000BFFEA07CA847211C12310122381C00F0C3
:105E3000B7FEE07CA847211C1331381C012200F07A
:105E4000AFFE0026E37C9E420ADA6369985DA847AC
:105E50006369381C9919012200F0A2FE0136F1E7AE
:105E6000207EA847208B000AA847AA20A847E369FC
:105E700000200133E361FEBD08B51548FFF7DEFEE3
:105E8000FFF754FA1348FFF7D9FE00F089FF124BD1
:105E9000984203D99020400100F058FF00F080FFA5
:105EA0000E4B81B218800E48FFF7C8FE0D4B0E490D
:105EB000002259618021C90099605A705A600B49CB
:105EC0000B4B5961802149005A7099605A6008BD96
:105ED000DF7C0008EC7C0008FEFF00005C13002063
:105EE000F07C0008F00D0020240E00202412002079
:105EF00024130020064B1B888B818389CB81054BA3
:105F00001A78012313408B74037C0B747047C046CE
:105F10005C1300200C010020F7B56D46C34E073519
:105F200000272F707378341C0D2B00D1DBE0FFF7B6
:105F300031FA071E00D1C2E0FFF724FA2870011CD5
:105F400070780C2800D96FE1FFF7F2F80715202CC4
:105F500036444F5A65788C8F9600B5480021FFF77C
:105F6000E7FBB44B1A68B44B1A602B78552B00D062
:105F70005AE1012357E1301C0023B1811A30291C5A
:105F80000122738300F00CFE02234CE1B389090265
:105F90001943301CB1811A30291C012200F000FE87
:105FA000032340E1301C04231A30291C01227370A2
:105FB00000F0F6FD2B780BE0301C052301221A308F
:105FC000291C737000F0ECFD2B78F2891B0213433F
:105FD000E38129E1301C06231A30291C0122737049
:105FE00000F0DEFD2B7833741EE1301C07231A30DD
:105FF000291C0122737000F0D3FD2B78737413E118
:10600000301C08231A30291C0122737000F0C8FDCF
:106010002B78B37408E1894C0122201C291C00F064
:10602000BFFD2B78201C1A380022C37442609342B3
:1060300001D0092300E00A234370F5E07269736818
:10604000301CD154726973681A30D118012200F0E3
:10605000A7FD7368F27C01337360934200D0E3E0E4
:106060000A23E0E00B23737004E00C237370338B7E
:10607000090219432183D7E0AA2916D1728B338BE9
:106080009A4209D10D237370736A002101336C4861
:106090007362FFF74DFBC7E0B36A6A480133B3622E
:1060A00000237370FFF7CAFDBEE0F36AF289013383
:1060B000F362654800237370FFF7C0FDB4E07378A6
:1060C000002B00D1B0E0FA2159488900FFF730FBDE
:1060D000002800D1A8E05D48FFF7B0FD336B777072
:1060E00001333363A0E05A49F2890B88934200D010
:1060F00098E0B2899A4200D194E0564D8023AA8A52
:106100009B011343AB824E480521FFF711FB00288A
:1061100000D189E0336A391C01334F483362FFF7FD
:1061200007FB4E4D301C291CFFF7E4FE737C2E1C30
:106130007D2B4DD008D8072B19D00B2B3CD0002B32
:106140005BD16B74EB7456E07F2B23D0444917D39B
:10615000F02B52D1281C6B74EF74FFF721FE0F2037
:10616000FFF70AFB3A4A108800F026FE51E06B74F4
:106170003C4B68691968EF74FFF709FEE8743AE070
:10618000394B6F741F701A7801231340AB74EF748E
:10619000281C3CE06B74EF74344AF37CD25D716967
:1061A0000137CA540133F3740C2FF5D17169DBB296
:1061B0000022CA54013327E02949281C6B74EF746C
:1061C000FFF7EEFD0F20FFF7D7FA00F0B5FD20E056
:1061D00027486B74EF74FFF731FD636958781A78BC
:1061E0000002104300F0B2FD636919491A785B7828
:1061F0001B0213430B80281C08E0191C1D48FFF7E5
:106200001DFD012373740023F374301C1449FFF740
:10621000C7FD002363700F4B0E499A8A164B13403B
:106220008B8201E000236370F7BDC046F00D0020B3
:10623000E40D00207C060020E00D00200A0E002066
:1062400060130020027D00080F7D0008347D0008E7
:106250005C13002000040048581300202413002081
:10626000855D0008800600200C0100203E7D0008AE
:106270004B7D00085B7D0008FFDFFFFF38B512484B
:10628000FFF7DCFC114B12481988FFF7D7FC114CC3
:106290001148616AFFF7D2FC216A1048FFF7CEFC73
:1062A0000F4DE16A281CFFF7C9FC216B0D48FFF771
:1062B000C5FCA16A0C48FFF7C1FC281CE16AFFF786
:1062C000BDFC002038BDC046777D00085C1300206F
:1062D000897D0008F00D0020947D0008A77D00084E
:1062E000BA7D0008CD7D0008E07D000808B5034BAD
:1062F000188800F061FD002008BDC0465C13002036
:106300006D4BF7B55A6980252D032A435A615A69A6
:106310008020800202435A615A698026F602324385
:106320005A615A698024E40322435A61012101F031
:10633000BFF9301C012101F0BBF9281C012101F03B
:10634000B7F9201C012101F0B3F90120011C01F073
:10635000BBF96A460023594CD37101231371802382
:106360005B01201C694680279025ED050093BF0145
:1063700001F099FA201C6946009701F094FA022274
:10638000281C694600924E4E01F08DFA0123281C0C
:106390006946009301F087FA8022D201301C6946D9
:1063A000009201F080FA301C6946009701F07BFAF8
:1063B00080239B00201C6946009301F074FA80231F
:1063C0005B00201C69468027009301F06CFA201CBA
:1063D0006946009701F067FA4023201C6946009344
:1063E00001F061FA2022201C6946009201F05BFA5C
:1063F0001023201C6946009301F055FA0823201C45
:10640000694600933E0201F04EFA281C6946009648
:1064100001F049FA69462B48009701F044FA4022FE
:1064200069462848009201F03EFA201C6946009611
:1064300001F039FA8023DB01201C6946009301F04A
:1064400032FA1022281C6946009201F02CFA20230F
:10645000281C6946009301F026FA4022281C694650
:10646000009201F020FA281C6946009701F01BFAFF
:106470006B460022DA7101221A719A71201C0123E5
:106480006946009301F00FFA6A4600239371A38ACC
:1064900001221343A3826B46DA7100221A71201C79
:1064A00002236946009301F0FEF90423201C69468B
:1064B000009301F0F8F9F7BD001002400004004815
:1064C000000800480014004870B588B000F01CFCBB
:1064D00080200003012101F0EBF80120011C01F0F4
:1064E000F3F8FFF70DFF4B4BFA2118688900FEF710
:1064F00029FE494B013898420DD8484B484A58600C
:10650000106AC0210002000A09060143116200223C
:106510009A6007221A60FFF7B9F9802080020121F2
:1065200001F0C6F880208002012101F0D9F8902006
:10653000C0050221012201F0F1F990200122C005DD
:10654000032101F0EBF96846032300244371012580
:1065500002230371C571847190200C26C005694621
:10656000009601F0A0F9E1235B022E4802A90293F4
:106570000394049405940794069600F09DFE291C4C
:10658000284800F0F1FE2848FFF78CF8274D211C21
:10659000281CFFF7CDF8FEF78DFE2548FFF74EFBD0
:1065A0002448FFF74BFBFFF767FCFFF701F800F00B
:1065B00051F900F017FD281CC821FFF7B9F8002891
:1065C00005D01D4B8022998A52014A409A821B496C
:1065D0001B48FFF7ADF81B4B196800290DD01A486E
:1065E000FFF7A6F8002808D0184B0222995E184B36
:1065F00002201A5E1748FFF721FB00F06DFD00F046
:1066000055FC00F0E1F9FFF787FCFFF7A3F900F074
:10661000ABF9D0E700010020FFFFFF0010E000E031
:1066200000ED00E000440040A08601006C13002053
:10663000F37D00080D01002000040048B80B0000A5
:10664000781300209C060020681300209A13002075
:10665000D40D0020F77D000810B50D4C01280ADD8F
:10666000486800210A1C01F0B5FA011C20600948A5
:10667000FFF7E4FA0AE000232360074B0220195ECB
:10668000064B02201A5E0648FFF7D8FA012010BD1B
:106690009C060020157E00089A130020D40D0020CF
:1066A000F77D000808B500F047FB012008BD000099
:1066B00008B501280ADD486800210A1C01F08AFAA1
:1066C000034B011C18600348FFF7B8FA012008BD0E
:1066D00038010020327E000873B5594E594CB56917
:1066E000E90614D50A22A15E5748FFF7A7FA574BCF
:1066F000002222737621F361301C01F097F8544B8D
:106700008022998A92010A439A8206236380238811
:10671000012B56D10223E05E042800D98EE0FEF75B
:1067200007FD030C152C4500A90700D486E021794C
:10673000434801F0B3F801237FE02A0600D47DE04E
:106740003F48012101F07CF8022376E0AB0775D5C4
:106750000821635E22693A48D15C01F09FF82389E1
:10676000013323810621635E012B43D10423344886
:106770000021638001F072F860E082231D425DD049
:106780000822A35E22692E48D15C01F087F8238994
:106790000621625E01339BB223811BB29A424DDC1B
:1067A0002748002101F05AF8042346E020231D4227
:1067B00044D0F361002222487221227301F036F89E
:1067C0003AE0002B3AD10222A05E042836D8FEF728
:1067D000A5FCAB033513280069062FD561899023EA
:1067E0009B014900A2790093802389B214489B043D
:1067F00001F042F8032320E0042635421ED023890D
:106800000F485A1C228122691BB2D51801F048F8A2
:1068100028700823E25E0621635E9A420EDB6680E2
:106820000CE020231D4209D0F361054876210022A7
:1068300000F0FCFF002323730523638073BDC04673
:10684000005800407C1300203F7E0008FF2F00000E
:1068500000040048F0B5234E8BB02348FFF7EEF953
:10686000301C00F08DFF8020C002012100F020FFCD
:106870008020C003012100F033FF1C4FC0231B0107
:106880000024012501A90193381C02230B714C71CE
:10689000CD718D7101F007F8381C2A1C0A2101F016
:1068A0003DF82A1C381C0B2101F038F8104B03A9C5
:1068B000301C039304940594079406940894099457
:1068C00000F078FF6A46182368461370557095707B
:1068D00000F01EFF301C291C00F09EFF054B1C73AE
:1068E0000BB0F0BD00580040547E00080004004882
:1068F000895E80107C130020F0B5184C87B003919E
:1069000004920593257B071C002D04D01448FFF743
:1069100095F900201FE0201C291C1430FEF708FF09
:10692000039B0126A380049B2673E380059B67815C
:10693000236180239B012580658025817900009358
:106940000848321C2B1C00F097FF06487621321CA9
:1069500000F06CFF301C07B0F0BDC0467C13002077
:10696000607E00080058004008B50848037B002BF3
:106970000AD014303221FEF7DBFE002804D0044890
:10698000FFF75CF9FFF766FF08BDC0467C130020E7
:106990006B7E0008034B0222985E05384342584143
:1069A000C0B270477C13002010B5041C002C0ADD17
:1069B0000820FEF79BFC2020FEF798FC0820FEF73D
:1069C00095FC013CF2E710BDF8B5FEF79FFC0028EE
:1069D00078D0FEF793FC3C4C051C01231B2807D004
:1069E0002378002B2ED0012B04D15B2828D1022341
:1069F000237067E0022B23D1412807D1334E306842
:106A0000FFF7D2FF324D2968013908E0422817D13B
:106A10002E4E3068FFF7C8FF2D4D2968013107273A
:106A200039402C4A2960890151182B48FFF706F993
:106A30002868284B0740B801181801F034F8306076
:106A40000023D5E7214C082801D07F280ED12368E8
:106A5000002B37D0013B08202360FEF747FC2020A5
:106A6000FEF744FC0820FEF741FC2BE0184E194FBE
:106A70003268930122689B18D8550A2806D00D2841
:106A800004D0FEF733FC23680133236023683F2BD7
:106A900003DC0D2D01D00A2D14D1306807252840C4
:106AA0008001C2180021B9548B4206DD381800F06D
:106AB000E9F8336801331D4035600848FFF7BEF838
:106AC00000232360F8BDC046A4060020A0060020D5
:106AD000A80600203C010020F37F0008E37E0008A8
:106AE0007FB50922051C0E1C01A80D4900F0D2FF3C
:106AF0000C48FFF7A3F80024AC4207DAA300211CDE
:106B0000F2580948FFF79AF80134F5E701A9074858
:106B1000FFF794F801A800F0B5F8002004B070BDAC
:106B2000077F0008E77E0008F07E0008FF7E00086F
:106B300008B500F005FF352000F01AFF08BD000081
:106B4000F8B5041C171C0D1C0026BE421FD2114BA9
:106B500022689A421BD81048FFF770F8206829680D
:106B600000F04AFF04280ED121680C48FFF766F8B0
:106B7000043523682A1F12681968914205D104332D
:106B800023600136E1E7012002E0022000E000205E
:106B9000F8BDC046FBFF0308187F0008207F0008EF
:106BA00070B50023048893420BDACE5C064D664034
:106BB000F6B27600755B240A6C40013304809BB208
:106BC000F0E7A0B270BDC0463C030020F8B5051C3C
:106BD00023480C1CFFF732F8012D33DD65682B7854
:106BE0002D2B17D16B786C2B12D11E48FFF726F88E
:106BF0001D4C251C21681D48FFF720F82B1C0C3468
:106C00006C339C42F6D321681948FFF717F825E04A
:106C1000184814E0144C271C2668291C301CFEF769
:106C200073FA002805D1A268311C1348FFF706F853
:106C300004E03B1C0C3478339C42EDD30F48FEF744
:106C4000FDFF0BE0084C251C2168A2680C48FEF7EC
:106C5000F5FF2B1C0C3478339C42F5D30020F8BD93
:106C6000A47F0008AB7F00082C7F0008B67F0008D7
:106C7000F27F0008BB7F0008CE7F0008DA7F0008A3
:106C8000EB7F0008F0B5B3B0011C4022684600F06D
:106C900011FF00A81190002301256946CA5C002A53
:106CA00015D0202A10D10022CA545A1C6846815C93
:106CB000202901D1131CF8E7002905D000A9A8005C
:106CC0008A1811A94250013501333F2BE5DD0C4CE8
:106CD000119F261C2068391CFEF716FA002804D1E3
:106CE0006368281C11A9984707E0331C0C347833DB
:106CF0009C42EFD30348FEF7A1FF33B0F0BDC0467E
:106D00002C7F0008F67F000808B5002380200005CE
:106D10001A1808489900091809689200013311608F
:106D2000302BF3D10120011C00F0CEFC032000F039
:106D30000FFC08BD0050000808B50348FEF77EFFB1
:106D400000F016FDFEE7C046FF8000081FB5114C9D
:106D500001235B4202930390019400F0F1FDFFF7E1
:106D6000E7FE201C00F02CFE002404280ED101A810
:106D700002A90222FFF7E4FEA04204D10648FEF772
:106D80005DFF012402E00548FEF758FF201C04B017
:106D900010BDC04600FC0008188100082A810008C8
:106DA00010B5034C03482168FEF748FF206810BD6A
:106DB00004FC00083F81000830B5051C85B0144C68
:106DC0001448FEF73BFF0023029303950194FEF75E
:106DD000C7FA291C1048FEF731FF00F0B1FDFFF79C
:106DE000A7FE201C00F0ECFD01A802A90222FFF77B
:106DF000A7FE002802D10948FEF720FF084B2168B2
:106E00001A680848FEF71AFF00F0AAFDFFF794FF82
:106E100000FC00085D8100087581000818810008E9
:106E200004FC00089C81000838B5051C4868002156
:106E30000A1C00F0CFFE012D07DD84B2201CFFF7F5
:106E400085FF002801D0044B1C80044B04481968BE
:106E5000FEF7F4FE012038BD5C13002004FC00089E
:106E60003F81000838B5031C0020132B17DC642970
:106E700015D81824201C5843094A89B2151869806E
:106E8000084D2D68002D00D1815263430648D41867
:106E9000D35E64215843FEF7A3F96060012038BD3A
:106EA000B41300203C0500201A410000F7B5444807
:106EB0005321FEF74FFC002823D0424C23680133B6
:106EC000132B00DD0023236020681826331C434366
:106ED0003D4D595B642901D1012101E0002902D116
:106EE00000F08EF80DE0083358190021FEF732FC4F
:106EF0002068012100F084F823685E430123AD1966
:106F00002B74324C0025237A002B0FD0231F0A212B
:106F10001868FEF717F9011C201CFEF71BFC00285F
:106F200004D000212172281C00F06AF801351834C1
:106F3000142DE8D1264B1B68002B3FD0254801219A
:106F4000FEF7F6FB002839D0234F18253A681E4C6F
:106F50005543019266192B5B0222B15E1AB291422F
:106F600026D011DD1D4A1E4812686421D3189BB239
:106F70002B531BB25843FEF733F973887060295FB7
:106F80001AB2914214DD12E0914211DA134A144808
:106F9000126864219B1A9BB22B531BB25843FEF715
:106FA0001FF973887060295F1AB2914200DA2B537F
:106FB000019B0133132B00DD00233B60F7BDC0466E
:106FC000A8130020B0130020B4130020BC1300202D
:106FD0003C050020AC130020AC060020400500203A
:106FE0001A410000044B14221A6264229A620022A1
:106FF0001A63024ADA62704798150020881300006D
:1070000013280EDC074B8000074A1B58002903D0C9
:10701000998A125A0A4303E01258998A91430A1C2A
:107020009A8270479405002044050020F7B5184A5D
:107030000125138A2E1C5B089E43164B18684100DD
:107040000E431E60128A5968920895434A00154300
:107050005D600023191C1A1C01249440371C274032
:10706000781E87412C40DB190132671EBC4109198B
:107070001E2AF1D1084A142B01DD012300E0002370
:1070800093600123142900DC0023D360F7BDC046C0
:1070900000040048B40600209815002008B5054BF0
:1070A0001B6B002B04D1002900D06421FFF7DAFE0E
:1070B00008BDC0469815002038B5051C0024054BB6
:1070C0001B6A9C4205DA201C291CFFF7E7FF0134EC
:1070D000F5E738BD9815002038B556480621FEF76B
:1070E00027FB002801D0FFF7A1FF534D2B782C1C64
:1070F000002B45D151480521FEF71AFB002800D18D
:1071000096E0287F042800D992E0FEF711F80313D7
:1071100044505800AA68002A04D001232B7700238A
:107120002B616B62E368002B00D181E001232377A0
:10713000236123E04248A96AFEF7FAFA002877D0D3
:107140002D69002D0FD1606A0121FFF7A7FF226A88
:10715000636A013A934202DA0133636268E0022310
:107160002377656264E0012D62D1606A291CFFF714
:1071700095FF636A002B32DC02232377236A2EE01B
:10718000012B55D12D480521FEF7D2FA00284FD00A
:107190002B7F022B31D1A268002A49D1E368002B52
:1071A00046D128480021FEF7C3FA032333E02548DF
:1071B000E96AFEF7BDFA042300282CD138E0204804
:1071C000A96AFEF7B5FA002832D02969012908D149
:1071D000686A0021FFF762FF6B6A002B0BDD013B41
:1071E000BBE7002924D1686AFFF758FF2A6A6B6A57
:1071F000013A9342B0DB00230DE0032B0DD0002BAE
:1072000016D1AA68002A02D1EB68002B10D0012009
:10721000FFF752FF022323770AE00A48E96AFEF7E4
:1072200087FA002804D00020FFF746FF00232B77C1
:1072300038BDC046B00600209815002094150020E7
:10724000CC150020D0150020014B0120986070471C
:1072500098150020014B0120D86070479815002038
:10726000114B10B51B68032B1CD1104C2368002B4D
:107270000CD0012B13D10E4A918A0B439BB29382FF
:10728000FEF7DEF90B4B00221A7008E0084B0121D3
:107290009A8AFA200A439A828840FEF7EFF9236817
:1072A0000133236010BDC046BC060020C406002088
:1072B00000040048C0060020036801229343F0B593
:1072C00003604268224B0D1C896813400B434360E6
:1072D0000268204B69681A40EB688BB00B43296940
:1072E000041C0B431343036082681B4B13406A6901
:1072F0001343836001A800F035F9184B9C4201D17B
:10730000079E05E0164B9C4201D1089E00E0039EBB
:1073100023682F68190400D57600391C301CFDF74E
:1073200011FF391C051C301CFDF750FF7F0800239E
:10733000B9425B41ED1823681A0404D5094A2B07AA
:107340005B0F15401D43ADB2A5810BB0F0BDC0462B
:10735000FFCFFFFFF3E9FFFFFFFCFFFF0038014015
:1073600000440040F0FF000001230268002901D022
:10737000134301E09A43131C03607047C905C90D0C
:1073800001857047808CC005C00D70478268002958
:1073900003D08023DB01134301E0024B13408360E1
:1073A0007047C046FFBFFFFF8BB210B5C9B20124C2
:1073B0008C401B0A211C022B01D1043002E0032B5C
:1073C00000D108300368002A02D01943016001E0AF
:1073D0008B43036010BDCBB210B501248AB29C4030
:1073E000120A231C012A01D1026804E0022A01D1F9
:1073F000426800E082681340C2690020834208D0DE
:10740000090C01208840011C101C0840411E8841C5
:10741000C0B210BD0388164A30B59BB2904206D068
:107420008024E405A04202D0124CA04203D1702473
:10743000A3434C882343104CA04203D00F4D0C892A
:107440002B40234303804B68C3620B880385904223
:1074500008D00B4B984205D00A4B984202D00A4BF9
:10746000984201D18B7A03860123838230BDC046C6
:10747000002C01400004004000100040FFFCFFFF12
:1074800000400140004401400048014001858282E3
:1074900070474162704701230288002901D01343DD
:1074A00001E09A43131C038070470000028C1A4BC2
:1074B00030B513400384058C8288848B73239C43EE
:1074C0000B8892B21C43154B2B408D892D022B4308
:1074D0004D889BB22D022B43114D9BB2A84214D173
:1074E000104D2B40CD892D022B430F4D2B408D8805
:1074F0002D022B430D4D9BB22A400D8A2D012A43AC
:107500004D8A92B22D012A4392B282808A68848386
:10751000C263038430BDC046FFFEFFFFFFFDFFFFD7
:10752000002C0140FFF7FFFFFFFB0000FFCFFFFF34
:10753000838B082293431943818370478389002AF0
:1075400002D01943818101E08B43838170470000A1
:10755000034B03211A688A43104318607047C046E2
:1075600000000140F8B54B4D041C68680C2318401E
:10757000FDF7DEFD1F1F1F1F1F1F1F1F071F1F1FE0
:107580001D006E68C023B6026A68360F5B020236C1
:107590001A4201D1404807E03E4B4048D96A0F23C8
:1075A00019400131FDF7CEFD7043206004E03C4BF3
:1075B00000E03A4B236000206A683A4B1206120F33
:1075C00021689A5C0E1CD6406660321C6E68760597
:1075D000760F9B5DDA40A2602B6BDE0501D4324B47
:1075E00006E02C4B5B685E0401D4530800E093086E
:1075F000E3602B6B5E0601D42C4B01E080231B0261
:1076000023612B6BDE0602D4244B636100E06161D1
:107610002F6B03231F4E1F4201D1A26112E0376B73
:107620001F40012F01D1A1610CE0376B1F40022FD9
:1076300002D180231B0204E0366B3340032B01D1BF
:10764000164BA361C0232F6B9B02124E1F4201D128
:10765000E26116E0376B80221F405202974201D14F
:10766000E1610EE0316B802219409202914202D119
:1076700080231B0204E0326B1A409A4201D1074B6F
:10768000E3612B6B1A0602D4054B236200E02062F3
:10769000F8BDC0460010024000093D0000127A000B
:1076A000006CDC02E4050020809FD5001280000001
:1076B000044B5A69002902D01043586101E082430B
:1076C0005A61704700100240044B9A69002902D0A9
:1076D0001043986101E082439A61704700100240B4
:1076E000044BDA69002902D01043D86101E08243DB
:1076F000DA61704700100240044B1A69002902D079
:107700001043186101E082431A6170470010024083
:10771000827870B50378002A1DD09908124A032494
:10772000890089182340C022A3409200FF248D586D
:10773000261C9E40B5434678B60134409C402B1C25
:1077400023438B5002781F231A40012393401A1CB5
:10775000054B1A6006E01F22134001229A40131CB9
:10776000024AD36770BDC04600E100E004E100E0DA
:10777000014A024B1A607047CCCC00000030004038
:1077800008B50B4B984207D1802080030121FFF7F9
:10779000B3FF8020800306E08020C0030121FFF7B3
:1077A000ABFF8020C0030021FFF7A6FF08BDC04645
:1077B00000540040026801239A43026030B5134A26
:1077C00004688D6822402C0222434C680D682243D5
:1077D00002600F4ACC682A400261026813430360CA
:1077E000002383608A69C3600B69134383608268E6
:1077F00080231B02134383600368234303604268B2
:10780000044B13404A691343436030BDFFE0CF008F
:10781000FFFFFFF0FF7FFF0701230268002901D06F
:10782000134301E09A43131C036070470368002A66
:1078300002D01943016001E08B43036070470000F0
:107840004268002903D080239B04134301E0024BCC
:10785000134043607047C046FFFFFFFD42680029A8
:1078600003D080235B04134301E0024B13404360C9
:107870007047C046FFFFFFFE30B54568064C8905DE
:107880002C40039D2C4323438C0D191C21431404CD
:107890000A1C2243426030BD009800FC81627047A0
:1078A000406AC0B27047F7B50B680193002301240A
:1078B000019A9C402240A2422CD10D796C1E012CD1
:1078C00014D887685C000326A640B74387604E79CA
:1078D0008768A640341C3C43846084889443848039
:1078E0008A7984889A40224392B282805A00032483
:1078F00007689440E44327400760076895403D438C
:107900000560C5682C40C460CD79C46895402A1CC8
:107910002243C2600133102BC9D1F7BD07230B40AE
:10792000C9088900401810B5016A9B000F249C40CB
:10793000A1430162016A9A40131C0B43036210BD0C
:10794000044B1A69110603D5034A5A60034A5A6068
:107950007047C0460020024023016745AB89EFCD48
:10796000024B80211A690A431A61704700200240C5
:10797000014BD8607047C04600200240074B0120F1
:10798000DA68024209D1DA680220D10605D4D86843
:1079900004231840434258410330704700200240FE
:1079A00010B5041CFFF7EAFF012805D1002C05D013
:1079B000FFF7E4FF013CF7E7002C00D1052010BDE4
:1079C00070B5061CB0200003FFF7EAFF042810D1B1
:1079D000084C0225236940222B43236166612369F9
:1079E000B020134323610003FFF7DAFF2369AB43A1
:1079F000236170BD00200240F7B5071CB0200023B2
:107A000000030E1C0193FFF7CBFF042818D10D4C87
:107A100001252369B0202B432361B3B23B800003CF
:107A2000FFF7BEFF042808D102370197019B360CEF
:107A3000B0201E800003FFF7B3FF2369AB4323612F
:107A4000FEBDC0460020024070B50E4B0E4D002416
:107A5000ED1AAD101E1CAC4204D0A300F358984799
:107A60000134F8E700F0C4F8084B094D0024ED1A82
:107A7000AD101E1CAC4204D0A300F358984701344B
:107A8000F8E770BDBC820008BC820008BC82000818
:107A9000C082000810B50023934203D0CC5CC454CC
:107AA0000133F9E710BD0023C25C0133002AFBD18A
:107AB000581E704730B5031C002A07D00C780133DC
:107AC0005D1E013A2C700131002CF5D19A189342B9
:107AD00003D0002119700133F9E730BDF0B51D1C4A
:107AE0003B4B87B01B68059002930491171C0B1C3D
:107AF00002991C785E1C0A19517808220A4001D0AC
:107B0000331CF5E72D2C04D101229E1C5C780192D8
:107B100004E001922B2C01D15C789E1C10232A1CBE
:107B20009A4311D1302C08D1327820218A43582A27
:107B300007D174781D1C023606E0002D04D10A25F9
:107B400002E0002D00D108250120291C4042FDF74C
:107B5000F9FA039001204042291CFDF737FB00236E
:107B60008C46181C02990A195278510701D5303CED
:107B700007E00321114017D05722012900D13722F5
:107B8000A41AAC4210DA002B09DB039A904206D803
:107B900001D1644503DC68430123201801E001237F
:107BA0005B4234780136DDE7002B04DA05992222A6
:107BB0000A60012002E0019A002A00D04042002F12
:107BC00004D0049A002B00D0721E3A6007B0F0BDBA
:107BD000F405002038B5131C044A051C0C1C106861
:107BE000291C221CFFF77AFF38BDC046580600202A
:107BF000F8B5C046F8BC08BC9E467047F8B5C0460C
:087C0000F8BC08BC9E46704769
:107C080000C20100000000000000000000000000A9
:107C18000C0000000000000000C20100000000008D
:107C280000000000000000000C000000000100003F
:107C38004C7C0008C000002000440040FF00000009
:107C4800FF000000000002000000004804000000DF
:107C580000000200020001000000004808000000C7
:107C68000000020003000100000000000000000006
:107C78000000000000000000947C0008D8000020EC
:107C880000380140FF000000E80300000040000049
:107C98000000004800040000000002000A00010083
:107CA8000000004800020000000002000900010076
:107CB8000000004800100000000002000C00010055
:107CC8000A2074696D6572203320696E69743A0000
:107CD800286E756C6C29000A206D796275732069AD
:107CE8006E6974003A4F4B000A0D525334383520F0
:107CF800616464723A30782578000A0D5F637263B4
:107D08005F6572726F72000A0D6574785F657272D2
:107D18006F72202872785F636861723A30782578CC
:107D28002920646573743A30782578000A0D7469DF
:107D38006D656F7574004C454432302056312E30D5
:107D48002E30000A5253343835207365742061642C
:107D58006472000A206E61636B202D2066756E6365
:107D680074696F6E206E756D6265723A2564000ADB
:107D78006D79627573207374617469737469637360
:107D8800000A416464723A25303278000A72785FDA
:107D9800746F745F6D73675F636E743A2564000A6D
:107DA80072785F6D73675F636E74202020203A25B8
:107DB80064000A72785F6574785F6572725F636EDB
:107DC800743A2564000A72785F74696D656F75741A
:107DD8005F636E743A2564000A72785F6372635F4A
:107DE8006572725F636E743A2564000A0A0A000AB3
:107DF8002074656D705F4453313832303A25642001
:107E080074656D705F534539353A2564000A7072A0
:107E1800696E742074656D70657261747572652021
:107E280074696D653A25646D73000A70776D206416
:107E38007574793A2564000A20693263206E61639B
:107E48006B20616464723A30782578000A206932C0
:107E5800633220696E6974000A2069326320627592
:107E68007379000A206932632074696D656F7574CF
:107E78003A207265696E697421000A693263207755
:107E88007269746520616464723A3078257820726A
:107E980065673A3078257820646174613A307825CE
:107EA80078000A2061726763206572726F72000A37
:107EB800693263207265616420616464723A307863
:107EC8002578207265673A30782578207265675F73
:107ED80076616C75653A30782578000A3D3E000A6F
:107EE8004E455720424C41000A417267756D656ED8
:107EF8007425643D2573000A52554E3A2573006F68
:107F080073635F6C6F2031000A414444523A300079
:107F18000A207772697465000A20616464723A30D5
:107F2800782578001F800008CD6B00080D800008B8
:107F380024800008E16A0008288000083D800008C5
:107F4800296E00084C80000859800008ED6200087E
:107F58006180000873800008A56600087980000821
:107F68008C8000087D6200088680000892800008E6
:107F7800B1660008968000089A80000849720008D7
:107F8800A6800008B280000855720008C08000086A
:107F9800CE80000859660008D98000080A48656C38
:107FA800700A000A436D64206C6973743A002025D6
:107FB800732C000A556E6B6E6F776E20706172615C
:107FC8006D65746572000A2020252D3135732025D2
:107FD80073000A556E6B6E6F776E20636F6D6D61FF
:107FE8006E64000A202025313273202573000A456B
:107FF80072726F723A556E6B6E6F776E20436F6D4B
:108008006D616E64003C2D6C206F7220636D643E60
:10801800207072696E742068656C7000626C610013
:10802800746573742072756E20636D645F70726F0F
:1080380063657373007365745F72733438355F6199
:108048006464720072733438356164647265737382
:1080580000656E746572424C00656E7465722042EC
:108068006F6F74204C6F616465720072657365741C
:1080780000726573657420646576696365005253A0
:10808800343835207374617473007365745F707766
:108098006D007365745F6C6564735F7570007365FC
:1080A80074206C656473207570007365745F6C650B
:1080B80064735F646F776E00736574206C656473B6
:1080C80020646F776E007072696E745F74656D708E
:1080D800007072696E742074656D70657261747574
:1080E8007265206576657279206E206D696C69739A
:1080F80065636F6E6473000A7265736574206D63DF
:10810800753A28696E7465726E616C20574429004F
:108118000A20666C6173682077726974653A204F2B
:108128004B000A20666C6173682077726974653A3F
:10813800204552524F52000A20727334383520615C
:1081480064647265737320696E20666C6173683A43
:108158003078257800746F646F3A20656E746572A4
:1081680020626F6F746C6F6164657221000A20670A
:108178006F696E6720746F20626F6F746C6F6164D3
:1081880065722120525334383520616464723A3064
:10819800782578000A20626F6F746C6F616465726D
:1081A80020666C61673A2030782578203078257809
:1081B80000002020202020202020202828282828CF
:1081C80020202020202020202020202020202020A7
:1081D80020208810101010101010101010101010FF
:1081E80010100404040404040404040410101010FF
:1081F80010101041414141414101010101010101BA
:108208000101010101010101010101010110101029
:10821800101010424242424242020202020202028C
:1082280002020202020202020202020202101010FC
:108238001020000000000000000000000000000006
:108248000000000000000000000000000000000026
:108258000000000000000000000000000000000016
:108268000000000000000000000000000000000006
:1082780000000000000000000000000000000000F6
:1082880000000000000000000000000000000000E6
:1082980000000000000000000000000000000000D6
:1082A80000000000000000000000000000000000C6
:0482B800000043007F
:0482BC00E95000087D
:0482C000C1500008A1
:1082C40000000000000000000000000000000000AA
:1082D400C7070020C80600200000000000000000BE
:1082E4000000000000000000C6080020C5090020AE
:1082F4000000000000000000010203040607080952
:10830400006CDC02AAAA000001000000013C7665B2
:108314007273696F6E5F646174613E4C45443230C0
:108324002056312E302E303C2F76657273696F6E75
:108334005F646174613E00003200000068656C7027
:108344000000000000000000000000000000000029
:108354000000000000000000000000000000000019
:108364000000000000000000000000000000000009
:1083740000000000000000000000000000000000F9
:1083840000000000000000000000000000000000E9
:1083940000000000000000000000000000000000D9
:1083A40000000000000000000000000000000000C9
:1083B40000000000000000000000000000000000B9
:1083C40000000000000000000000000000000000A9
:1083D4000000000000000000000000000000000099
:1083E4000000000000000000000000000000000089
:1083F4000000000000000000000000000000000079
:108404000000000000000000000000000000000068
:108414000000000000000000000000000000000058
:108424000000000000000000000000000000000048
:108434000000000000000000000000000000000038
:108444000000000000000000000000000000000028
:108454000000000000000000000000000000000018
:108464000000000000000000000000000000000008
:1084740000000000000000000000000000000000F8
:1084840000000000000000000000000000000000E8
:1084940000000000000000000000000000000000D8
:1084A40000000000000000000000000000000000C8
:1084B40000000000000000000000000000000000B8
:1084C40000000000000000000000000000000000A8
:1084D4000000000000000000000000000000000098
:1084E4000000000000000000000000000000000088
:1084F4000000000000000000000000000000000078
:108504000000000000000000000000000000000067
:108514000000000000000000000000000000000057
:108524000000000000000000000000000000000047
:108534000000000000000000000000000000C1C0B6
:1085440081C1400101C3C003800241C201C6C0060B
:10855400800741C70005C1C581C4400401CCC00CDB
:10856400800D41CD000FC1CF81CE400E000AC1CA9B
:1085740081CB400B01C9C009800841C801D8C0188B
:10858400801941D9001BC1DB81DA401A001EC1DE0B
:1085940081DF401F01DDC01D801C41DC0014C1D4FB
:1085A40081D5401501D7C017801641D601D2C0121B
:1085B400801341D30011C1D181D0401001F0C030EB
:1085C400803141F10033C1F381F240320036C1F60B
:1085D40081F7403701F5C035803441F4003CC1FCDB
:1085E40081FD403D01FFC03F803E41FE01FAC03A9B
:1085F400803B41FB0039C1F981F840380028C1E8CB
:1086040081E9402901EBC02B802A41EA01EEC02E0A
:10861400802F41EF002DC1ED81EC402C01E4C024FA
:10862400802541E50027C1E781E640260022C1E21A
:1086340081E3402301E1C021802041E001A0C0602A
:10864400806141A10063C1A381A240620066C1A60A
:1086540081A7406701A5C065806441A4006CC1ACDA
:1086640081AD406D01AFC06F806E41AE01AAC06A9A
:10867400806B41AB0069C1A981A840680078C1B88A
:1086840081B9407901BBC07B807A41BA01BEC07E0A
:10869400807F41BF007DC1BD81BC407C01B4C074FA
:1086A400807541B50077C1B781B640760072C1B21A
:1086B40081B3407301B1C071807041B00050C1906A
:1086C400819140510193C053805241920196C0560A
:1086D400805741970055C19581944054019CC05CDA
:1086E400805D419D005FC19F819E405E005AC19A9A
:1086F400819B405B0199C059805841980188C048CA
:1087040080494189004BC18B818A404A004EC18E09
:10871400818F404F018DC04D804C418C0044C184F9
:10872400818540450187C047804641860182C04219
:10873400804341830041C1818180404001000000A9
:1087440001000000020000000100000000400000E1
:108754000020000000020000000100008000000072
:10876400400000002000000010000000080000008D
:108774000080000080000000400000000080000035
:108784000040000010000000200000004000000035
:108794008000000000000048000000480008004875
:1087A4000008004800040048000400480004004891
:1087B4000004004800040048000400480004004885
:1087C4000000004800140048001400480004004859
:1087D4000004004800000048000000480000004871
:1087E4000000004800000000010203040102030429
:1087F40006070809B9810008000000000000000015
:108804000000000000000000000000000000000064
:108814000000000000000000BA8200080000000010
:108824000000000000000000000000000000000044
:108834000000000000000000000000000000000034
:108844000000000000000000000000000000000024
:0C8854000000000000000000F8050020FB
:0400000508000001EE
:00000001FF
